:020000040800F2
:1000000080F300209D010008E1AD0008C18B0008CD
:100010002DAC0008691F000809F700080000000067
:1000200000000000000000000000000021EE0008B9
:10003000852A000800000000910B000815C6000882
:10004000D7010008D7010008D7010008F9E400082B
:10005000D7010008D7010008214C0008D70100088B
:10006000D7010008D7010008D7010008D701000810
:10007000D7010008D7010008D7010008D701000800
:10008000D7010008D7010008D7010008D7010008F0
:10009000D7010008D7010008D7010008D7010008E0
:1000A000D7010008D7010008D7010008D7010008D0
:1000B000D70100083DF20008D7010008D701000869
:1000C000D7010008D7010008D7010008D7010008B0
:1000D000D7010008D701000885F20008D701000801
:1000E000D701000801E10008D7010008D701000886
:1000F000D7010008D7010008D7010008D701000880
:10010000D7010008D7010008D7010008D70100086F
:10011000D7010008D7010008D7010008D70100085F
:10012000D7010008D7010008D7010008D70100084F
:10013000D7010008D7010008D7010008D70100083F
:10014000D7010008D7010008D7010008D70100082F
:10015000D7010008D7010008D7010008D70100081F
:10016000D7010008D7010008D7010008D70100080F
:10017000D7010008D7010008D7010008D7010008FF
:10018000D7010008D7010008DFF80CD000F078FA9A
:10019000004800479189010880F30020DFF838000B
:1001A000016841F470010160BFF34F8FDFF82C004C
:1001B000016821F040410160BFF36F8F084880471C
:1001C00008480047FEE7FEE7FEE7FEE7FEE7FEE73A
:1001D000FEE7FEE7FEE7FEE788ED00E034EF00E033
:1001E000D5EF00088901000872B6704762B6704703
:1001F000EFF3108072B6704780F31088704730BFFD
:10020000704720BF7047B0FA80F0704790FAA0F0B6
:10021000B0FA80F0704790FAA0F0704710B5441A19
:100220000346944209D28418114403E011F8013DB9
:1002300004F8013D521EF9D210BD40EA0104A407A2
:1002400003D009E010C9121F10C3042AFAD203E038
:1002500011F8014B03F8014B521EF9D210BDD2B276
:1002600001E000F8012B491EFBD270470022F6E79F
:1002700010B513460A4604461946FFF7F0FF20461C
:1002800010BD30B505462A460B4612F8010B13F88F
:10029000014B08B1A042F8D01CB1002802D06D1C5F
:1002A000F1E7284630BD421C10F8011B0029FBD1A4
:1002B000801A704730B504460020034600E05B1CFE
:1002C000934203D2E05CCD5C401BF8D030BD0346C6
:1002D00011F8012B00F8012B002AF9D118467047BC
:1002E0000FB400B58DB010A909900B9000914FF09C
:1002F000FF300A9000200C900548069005480790B2
:100300006A4609A80F9900F055F90DB05DF814FB85
:10031000D1050008EF0500082DE9FF5F1D464FF0ED
:10032000FF3BD5E9014691465F464FF00008A969B9
:100330007F1C01988847296A824688470028F6D1A1
:10034000BAF1FF3F0CD024F4C064002E19DD600622
:1003500014D5BAF12B0F09D0BAF12D0F0ED103E04D
:10036000584604B0BDE8F09F44F48064A9697F1C3E
:1003700001988847761E8246002E02DDBAF1300FC2
:1003800003D0B9F1000F26D032E0A969761E44F4FB
:1003900000747F1C019888478246002E05DDBAF163
:1003A000780F06D0BAF1580F03D0B9F1000F10D072
:1003B0001EE0B9F1000F02D0B9F1100F18D1A969F0
:1003C000761E24F400747F1C019888478246102012
:1003D00002E0082000E00A20814609E008FB090845
:1003E000A969761E44F400747F1C019888478246F0
:1003F000002E05DD4946504600F0C7F80028EDDA2A
:10040000E96901988847A00502D46FF00100A8E7C8
:10041000E00725D1600613D5600502D5C8F10000BC
:1004200000E0404629680A1D2A600968220501D5B6
:10043000087015E0220701D5088011E008600FE080
:100440002868011D29600068210502D580F8008018
:1004500006E0210702D5A0F8008001E0C0F8008086
:1004600038467EE72DE9FF5FD2E901A74FF000088B
:10047000916999461446DDF838B046460198884798
:10048000054659EA0B0005D009E0A169761C0198E0
:1004900088470546216A284688470028F5D1681C08
:1004A00003D05FEACA7005D015E04FF0FF3004B00A
:1004B000BDE8F09F2068011D2160D0F800800AE0AF
:1004C0005FEACA7001D108F8015BA169761C7F1E42
:1004D000019888470546002F1ADD681C18D0B9F12D
:1004E000000F0DD0E81705EBD060421120F01F007F
:1004F00059F822102A1A012090400142E0D107E069
:10050000BBF1000FDCD1216A284688470028D7D0EC
:10051000E16901988847BBF1000F07D1002E05DD86
:100520005FEACA7002D1002188F80010A068B842C2
:1005300003DDBBF1000F03D017B16FF00100B6E788
:100540003046B4E770B5064617F0E2FB046805468E
:100550000A220021304600F05BF82C6070BD30B5F7
:100560000B46014600202022012409E021FA02F571
:100570009D4205D303FA02F5491B04FA02F528440B
:10058000151EA2F10102F1DC30BD3A2800D230384C
:1005900020F02002412A01D3A2F13700884201D382
:1005A0004FF0FF307047000002681144137801607B
:1005B00018467047D1600449516104491162002115
:1005C0001161114600F07CB8A9050008AD060008CD
:1005D000426842B1016811F8013B23B1521EC0E9E3
:1005E0000012184670470121C160881E704742689A
:1005F0005AB1C368016843B983688B4205D0491E6C
:10060000521CC0E90012002070474FF0FF307047C5
:100610002DE9F04791460F4680460446002614F81F
:10062000015B2DB100F03EF80068405DC007F6D1D7
:100630002B2D02D02D2D18D0641E4A463946204657
:1006400000F0D4F927B13968A14201D1C7F8008080
:1006500071054FF002040BD54042002803DD17F06E
:1006600057FB0460A007BDE8F08746F48066E4E726
:100670000028F8DA17F04CFB04606FF00040F2E756
:10068000064C074D06E0E06840F0010394E80700DF
:1006900098471034AC42F6D3FFF77AFDE0E2010848
:1006A00000E3010800487047D0E1010810B5044696
:1006B000FFF7F8FF0068005D00F0010010BD0000CA
:1006C0002DE9F34F8BB04FF0000801F10C000C4600
:1006D0004FF0010B46460DF1080A019062690121B5
:1006E0000198904705002DD0252D2CD0216A8847F0
:1006F000C0B16269012101989047216A88470028AA
:10070000F7D1411E62690198904700E0761CA1690B
:100710000B988847216A88470028F7D1E1690B9830
:100720008847DBE7A1690B9888470746A84201D1B3
:10073000761CD3E7E1690B9888477F1C02D1B8F19A
:10074000000F6FD046E1002762693D4639460198A7
:1007500090472A2804D16269012101989047012518
:10076000DFF884926269012101989047A0F130017D
:100770000A290AD24F45E5DC07EB870100EB410768
:10078000303FDFD445F01005ECE7E90601D46FF007
:1007900000476C280AD04C2814D0682815D06A2845
:1007A0000DD074281CD07A281AD01DE0626901216E
:1007B000019890476C2802D045F0040514E045F0FC
:1007C00002050DE045F020050AE06269012101986B
:1007D0009047682802D045F0080505E045F400651B
:1007E0006269012101989047C4E9015765283DD00D
:1007F00019DC58287AD00CDC452837D004DC2528B1
:1008000026D0412831D131E046282FD047282CD19D
:100810002CE05B2877D0612828D063287CD064281E
:1008200023D15AE0D0E06F2848D008DC66281DD0DC
:1008300067281BD0692821D06E2816D127E07028A0
:1008400045D0732868D0752847D078280DD14DE061
:10085000A1690B988847054625283FF469AFE169EF
:100860000B9888476D1C3FF46AAFB3E023466A4695
:100870006FF001000B99AFF300809EE045F040005F
:100880006060A80723464FF0000236D43EE0E80738
:100890007FF447AF2068011D21600068290501D55C
:1008A00006701BE7290701D5068017E7A90703D5BE
:1008B000F117C0E9006111E706600FE745F040005D
:1008C0006060A80723464FF0080216D41EE040F6E9
:1008D0000E0125EA0100606016E045F0400060600E
:1008E000A80723464FF00A0207D40FE045F0400066
:1008F0006060A80708D5234610226FF001000B990D
:10090000AFF3008059E007E0234610226FF00100AA
:100910000B99FFF701FD50E04FF000094F464B46A1
:10092000632802D05B2806D040E0E80601D401200D
:10093000A06001273AE062690121019890475E2892
:1009400005D14FF001096269494601989047216934
:1009500039B900210A46534643F82120491C082989
:10096000FADBB0B3216969B9C11700EBD162531149
:100970000AEB830122F01F02821A01200B689040CB
:1009800003430B6062690121019890475D28E8D11B
:10099000B9F1000F09D00020514651F82020D24370
:1009A00041F82020401C0828F7DB02AB22460097C4
:1009B0006FF001000B99FFF755FD00280CDA401C81
:1009C00008D1BBF1000F05D04FF0FF300DB0BDE8EE
:1009D000F08FFFE74046F9E7E90701D108F1010888
:1009E00006444FF0000B79E6CCCCCC0C2DE9F05F3F
:1009F00082460078002715468B460AF10104B94665
:100A0000302801D09DB113E014F8010B012778289C
:100A100003D0582801D045B10AE00DB1102D07D1FF
:100A20000027102514F8010B02E0082500E00A2534
:100A30000026B0460EE005FB080005FB06F1012785
:100A400001EB10461FFA80F8B6F5803F00D3B94697
:100A500014F8010B2946FFF798FD0028EBDABBF1EB
:100A6000000F05D00FB1641E00E05446CBF80040E3
:100A7000B9F1000F06D017F04BF902210160C81E32
:100A8000BDE8F09F48EA0640FAE770B58C1810F808
:100A9000015B15F0070301D110F8013B2A1106D1C3
:100AA00010F8012B03E010F8016B01F8016B5B1EDD
:100AB000F9D12B0705D40023521E0DD401F8013BB8
:100AC000FAE710F8013BCB1A921C03E013F8015B24
:100AD00001F8015B521EF9D5A142D8D3002070BDA8
:100AE000EFF3098141B1F1EE101A40F8041D20ED39
:100AF000200A3B490A6810607047B0EC200A02C81F
:100B0000E1EE101A37490A681060704772B64EF667
:100B10002250CEF2000040F2FF01C0F2000101704D
:100B200040F24410C2F20000016881F3088840F2EC
:100B30006210C2F2000040F26311C2F200010A78B2
:100B4000027040F2BC15C2F2000540F2C011C2F2C0
:100B500000010A682A60106880F30988EFF31480A6
:100B600040F0020080F31488BFF36F8FBDE8F00FF0
:100B70000FBCBDE8005006BC62B608471A484FF0EB
:100B800080510160704718484FF0805101607047F4
:100B900072B6EFF3098020E9F00F40F2BC15C2F203
:100BA00000052E68306074460BF0DCFB40F26210EA
:100BB000C2F2000040F26311C2F200010A78027032
:100BC00040F2C011C2F200010A682A6044F0F40E3B
:100BD0001068B0E8F00F80F3098862B67047000033
:100BE000BC010020C001002004ED00E021B18268BA
:100BF00042F00102826003E0826822F0010282601A
:100C0000704700000021084A1168084A1140D0E9E5
:100C100000231A4383681A43C3681A431143044AE2
:100C2000C2F804137047000004230140E030FCFFC9
:100C30000020014021B1826842F48072826003E0AA
:100C4000826822F480728260704721B1826842F427
:100C50000072826003E0826822F400728260704752
:100C600030B50246002000235068104C20400D791A
:100C70000C6844EA05242043506090680C4C2040E6
:100C8000D1E903542C438D682C434D7944EA450443
:100C900020439060D06A20F470000C7D641EE4B2A2
:100CA000234340EA0350D06230BD0000FFFEFFFC4A
:100CB000FDF7FFC0F0B504460D4600200021092DC8
:100CC00011DDE068A5F10A0606EB4607072606FADD
:100CD00007F18843A5F10A0606EB460603FA06F17A
:100CE0000843E0600CE0206905EB4507072606FA9B
:100CF00007F1884305EB450603FA06F10843206136
:100D0000072A0FDA606B561E06EB86071F2606FAC7
:100D100007F18843561E06EB860605FA06F10843DE
:100D2000606322E00D2A0FDA206BD61F06EB8607E0
:100D30001F2606FA07F18843D61F06EB860605FA3A
:100D400006F10843206310E0E06AA2F10D0606EB0D
:100D500086071F2606FA07F18843A2F10D0606EB67
:100D6000860605FA06F10843E062F0BD816841F0AD
:100D70008041816070470021016001714171816093
:100D8000C1600161012101757047000000B58BB0A1
:100D90004F49504807F048FF0AA803210022642366
:100DA000CDE90532CDE9071010464FF40061CC22A1
:100DB000494BCDE90132CDE903100A200023474A0F
:100DC00047A100904B480AF009FF01F0D1F90AA8A9
:100DD000032100229623CDE90532CDE90710052035
:100DE0004FF400713322444BCDE90132CDE90310B9
:100DF00004200023414A42A1009046480AF0EEFE3A
:100E00000AAB002244A147480AF030FD0AA803219A
:100E100000226423CDE90532CDE907100A204FF402
:100E200080711922404BCDE90132CDE90310072032
:100E300000233E4A3EA1009043480AF0CFFE0AA894
:100E400003210022FA23CDE90532CDE9071010462F
:100E50004FF4806166223D4BCDE90132CDE90310AC
:100E6000052000233A4A3BA100903E480AF0B6FE16
:100E70000AA8032100223C23CDE90532CDE9071061
:100E8000104680210C22384BCDE90132CDE9031008
:100E900008200023354A26A1009035480AF09EFE1E
:100EA0000AA80021334A0223CDE90032CDE902101D
:100EB0000A231A4630A132480BF024FB0AA9304815
:100EC0000BF046FB0AA92F480AF018FF0BB000BD33
:100ED000558B0008280100201443002079180008D1
:100EE000417070205461736B20555044415445202B
:100EF0004755490074420020743A00209D180008AC
:100F00004170705461736B4D61696C43656E7465BB
:100F100072000000D439002053656D4F664B65792F
:100F200000000000302E002034330020890F00081C
:100F3000417070205461736B20446973706F7365E6
:100F40004B65795369676E0094320020546C002021
:100F5000E51200084170705461736B4543323043B1
:100F600074720000B46B0020D4370020991D000873
:100F70003437002095900108746D72310000000034
:100F8000707C0020F42F00201CB5BE4C002778E1B7
:100F900001AB0022114610460AF08CFF01AA002185
:100FA0001E200BF01FFA00BF00BFFFF721F9074614
:100FB00000BF00BF0021B44801F0F8FBB349B248BC
:100FC00001F0DAFBAA21AF48FFF750F9AA22B04995
:100FD000AC48FFF723F9AA21AD48FFF747F9AA214A
:100FE000A94801F0C7FC0121A74801F0DFFB00BFC1
:100FF00000BF3846FFF700F900BF00BF07F002FE50
:101000002078002877D02046FFF74DF90546012DBE
:1010100001D0032D73D12078512826D008DC412837
:101020000FD0432858D0442810D0452865D121E05E
:10103000532815D057280ED0582829D05A285CD1CB
:101040001DE00121102006F0CFF957E00121122008
:1010500006F0CAF952E00121112006F0C5F94DE071
:101060000121132006F0C0F948E001210D2006F00F
:10107000BBF943E001211B2006F004F93EE00A2001
:101080008449087001AA002183480AF0E5FF35E091
:1010900082480088C0F3803070B98148006820F031
:1010A00002007F49086008207A49087001AA0021DF
:1010B00079480AF0D1FF0EE009207649087001AAAC
:1010C000002175480AF0C8FF7548006820F002004A
:1010D000801C7349086011E07248006820F0FF002E
:1010E000704908600F206B49087001AA00216A4806
:1010F0000AF0B2FF02E0BFE001E000BFBBE0042D58
:1011000066D1207841280DD1607831280AD1644811
:10111000006820F00100401C6149086062A016F0E0
:10112000D3FDA8E0207841280CD16078302809D17F
:101130005B48006820F00100594908605CA016F087
:10114000C3FD98E0207850280BD16078312808D171
:1011500007205049087001AA00214F480AF07CFF7F
:1011600089E0207850280BD16078302808D11020F1
:101170004849087001AA002147480AF06DFF7AE04B
:1011800020784C2811D1607831280ED1444840682D
:1011900020F4803000F58030414948603C200DF05B
:1011A000FBF945A016F090FD65E020784C2862D14F
:1011B000607830285FD13A48406820F48030384960
:1011C000486000200DF0E8F93DA016F07DFD52E0EA
:1011D000207841284FD1607854284CD100BF00BFFF
:1011E000FFF706F8074600BF00BF4FF496710020D6
:1011F00017F020FE80464FF496714046FFF736F810
:1012000031A12046FFF73DF8814642462FA1FFF766
:1012100067F8C6B200BF00BF3846FEF7EDFF00BF5B
:1012200000BF012E22D101A800231A46C821009038
:1012300029480AF0F3F800BF00BFFEF7D9FF0746C0
:1012400000BF00BF424625A1404616F04DFD404676
:1012500003F01EF800BF00BF3846FEF7CDFF00BF09
:1012600000BF01AAF1031C480AF0A0F94146002082
:1012700017F0CEFD00BF00BF01AA002128200BF00F
:10128000B1F885E6110800208860024000080020BF
:101290006607002024010020B46B0020100000200D
:1012A00030010020E82F002041310D0A000000002D
:1012B00041300D0A000000004C310D0A0000000012
:1012C0004C300D0A00000000415420004154203CE5
:1012D000255B5E3E5D000000547C002025730D0AF6
:1012E000000000008CB0FB48006820F4804000F54E
:1012F0008040F8490860F848006820F00100F6498D
:1013000008600BAAF5A1F9480AF060F8E0E10BAB20
:101310000022114610460AF0CDFDF548406820F441
:101320008030F3494860BDF82C0000287CD1F1489A
:101330000078112879D2DFE800F078097878787998
:101340007821FDFBFAF990ACCBE54D000BA800230A
:101350001A464FF4FA710090E4480AF05FF801F081
:101360006BFD04460BAA4FF40041E0480AF01EF959
:10137000012C02D1E0A016F0A7FC4AE1DC4800688D
:1013800020F00200801CDA4908600846406820F41A
:10139000803048600BA800231A464FF4FA71009081
:1013A000D2480AF03BF802F075FB04460BAA4FF452
:1013B0000041CE480AF0FAF8012C02D1D2A016F072
:1013C00083FCCB48406820F4803000F58030C84969
:1013D00048601EE1C648006820F00200C449086069
:1013E0000846406820F4803048600BA800231A4665
:1013F000C8210090BD480AF011F802F0E7FA04464F
:101400000BAA4FF40041B9480AF0D0F8012C02D1E0
:10141000C1A016F059FCB648406820F4803000F5B1
:101420008030B3494860F4E0F4E0F1E00BA8002319
:101430001A46C8210090AD4809F0F0FF02F090F87C
:1014400004460BAA4FF40041A8480AF0AFF8012C5B
:1014500002D1B7A016F038FCDBE0B9480078B8B18B
:101460000BA800231A46C8210090A04809F0D6FF17
:10147000B34A1268110CB24A1078002202F07AFBCB
:1014800004460BAA4FF4004198480AF08FF800BFB9
:10149000BFE0AB480078D0B10BA800231A46C821A2
:1014A0000090924809F0BAFFA54B1B681A0CA44B98
:1014B0001B88C3F30721A24B187801F0D9FE04461C
:1014C0000BAA4FF4004189480AF070F800BFA0E071
:1014D0009B4840680078A0B10BA800231A46C82199
:1014E0000090824809F09AFF954A9168506802F08E
:1014F00063FC04460BAA4FF400417C480AF056F8FE
:1015000000BF86E00BA800231A46C8210090774848
:1015100009F084FF8A49087802F0C4FE04460BAA49
:101520004FF4004171480AF041F872E059E031E0AF
:1015300018E0FFE70BA800231A464FF4486100901B
:101540006A4809F06BFF01F08FFB04460BAA4FF4C9
:10155000004166480AF02AF8012C02D179A016F061
:10156000B3FB56E00BA800231A464FF448610090E5
:101570005E4809F053FF01F01BFB04460BAA4FF431
:1015800000415A480AF012F8012C02D172A016F05C
:101590009BFB3EE00BA800231A46C821009053484D
:1015A00009F03CFF02F062F904460BAA4FF4004137
:1015B0004E4809F0FBFF012C12D1002500BF00BFEF
:1015C000FEF716FE054600BF00BF68A016F07CFBC4
:1015D00000BF00BF2846FEF70FFE00BF00BF00BFE0
:1015E00017E00BA800231A46C82100903F4809F0D5
:1015F00015FF02F09FF904460BAA4FF400413B4847
:1016000009F0D4FF012C02D15BA016F05DFB00E0D5
:1016100000BF04E0BDF82C105CA016F055FB2D486F
:101620000088C0F3803020B92A480088C0F3C03059
:10163000A0B12948007800F00100E0B30AA9584899
:101640000AF05CFBBDF8280038B92348006820F098
:101650000100214908600DF0A7FF2CE01D4800782B
:10166000C0F3800038B31C48007800F0010010BBC4
:101670000AA8032100220592CDE906210890104610
:101680004FF400713322474BCDE90132CDE903100D
:1016900009200023444A45A1009041480AF09EFADF
:1016A000BDF8280030B90C48006820F00100401C4B
:1016B0000949086000BF0E48406820F4803000F5FA
:1016C00080300B4948600BAA002132200AF08AFEC4
:1016D0001DE6000010000020400100206D757465BB
:1016E000785F6563323073656E740000547C00204F
:1016F000300100202401002073656E745F45433281
:10170000305F41544F4B0A00454332305F506F7792
:1017100065725F4F4E0A000073656E745F45433219
:10172000305F506F7765725F4F46460A00000000D9
:10173000454332305F4765745F434F50530A0000A2
:10174000E82F0020454332305F4149525F4D6F64BE
:10175000655F4F6E0A000000454332305F414952D9
:101760005F4D6F64655F4F66660A00004543323027
:101770005F494E49540A0000454332305F4E65745C
:101780005F5265675F494E49540A00004F534D75DB
:1017900074657850656E64206572723A25640A003B
:1017A00014630020B4630020BD170008417070541A
:1017B00061736B45433230546D7200001CB540F6C6
:1017C000B8302A49086050E028490968480801AA49
:1017D00000210AF007FE01A800231A464FF4FA710F
:1017E0000090234809F01AFEBDF8040038B901F052
:1017F00023FB01AA4FF400411D4809F0D7FE1D4804
:10180000007800F0010038B301A800231A464FF415
:10181000FA710090164809F001FEBDF8040038B9CD
:1018200001F09EFF01AA4FF40041114809F0BEFEED
:1018300001A800231A464FF4FA7100900C4809F0F1
:10184000EDFDBDF8040038B901F08AFE01AA4FF49D
:101850000041074809F0AAFE0DF0A6FE03490968F9
:10186000480801AA00210AF0BDFDADE738010020BB
:10187000547C00201000002008B504200FF006F86A
:1018800004F07EFF17F0F8FC06E017F0EBFC6A4668
:10189000002128200AF0A6FDF7E7000008B54FF464
:1018A000C871D448FEF7E2FC0025A1E1D1480078D8
:1018B000002875D06A46002132200AF093FD0024EA
:1018C00006E06A46002137200AF08CFD601CC4B295
:1018D000C9A1C848FEF7D5FC08B9112CF1DB00BF3F
:1018E00000BFFEF785FC054600BF00BF0021C348CE
:1018F00000F05CFF4FF08151C04800F03DFF4FF415
:10190000C871BF48FEF7B2FC4FF4C872B949BC4871
:10191000FEF784FC4FF4C871B648FEF7A7FC4FF4FD
:10192000C871B64801F026F80121B44800F03EFF26
:1019300000BF00BF2846FEF75FFC00BF00BFB148F4
:10194000007800F0010018B1AD49AFA016F0BCF965
:10195000A9A1AB48FEF795FC00286FD0AEA1A8481E
:10196000FEF78FFC28B16A460021AE480AF04CF819
:101970002BE1ADA1A248FEF784FC28B16A46002104
:10198000AB480AF041F820E1AAA19D48FEF779FC96
:1019900038B16B4600220321A94809F0EBFB14E1A2
:1019A00021E1A8A19648FEF76CFC28B16A46002107
:1019B000A6480AF029F808E1A5A19148FEF761FCC4
:1019C00028B16A460021A3480AF01EF8FDE0A2A152
:1019D0008B48FEF756FC28B16A460021A0480AF061
:1019E00013F8F2E09FA18648FEF74BFC28B16A4647
:1019F00000219F480AF008F8E7E09EA18048FEF722
:101A000040FC28B16A4600219D4809F0FDFFDCE05A
:101A10009CA17B48FEF735FC28B16A4600219C4812
:101A200009F0F2FFD1E09BA17548FEF72AFC30B126
:101A30006A460021994809F0E7FFC6E084E098A1D2
:101A40006F48FEF71EFC28B16A460021974809F04E
:101A5000DBFFBAE096A16A48FEF713FC28B16A469C
:101A60000021964809F0D0FFAFE095A16448FEF749
:101A700008FC28B16A460021934809F0C5FFA4E09C
:101A800092A15F48FEF7FDFB28B16A46002191480C
:101A900009F0BAFF99E090A15948FEF7F2FB28B18E
:101AA0006A4600218E4809F0AFFF8EE08DA15448B0
:101AB000FEF7E7FB28B16A4600218D4809F0A4FF34
:101AC00083E08CA14E48FEF7DCFB28B16A4600217A
:101AD0008C4809F099FF78E08BA14948FEF7D1FBCB
:101AE00028B16A4600218B4809F08EFF6DE08AA17B
:101AF0004348FEF7C6FB28B16A460021854809F035
:101B000083FF62E086A13E48FEF7BBFB28B16A4630
:101B10000021804809F078FF57E084A13848FEF79B
:101B2000B0FB30B16B4600220221454809F022FB90
:101B30004BE03448007800F00100002845D13049DE
:101B40007CA016F0C1F840E080A12D48FEF799FB7B
:101B500030B16B4600220121394809F00BFB34E01B
:101B60007CA12748FEF78DFB28B16A4600217A4800
:101B700009F04AFF29E079A12148FEF782FB28B14C
:101B80006A460021774809F03FFF1EE059A11C4832
:101B9000FEF777FB28B16A4600215A4809F034FF66
:101BA00013E071A11648FEF76CFB28B16A460021CC
:101BB0006E4809F029FF08E01248007800F00100A3
:101BC00018B90F496AA016F07FF8BDF8000048B1B7
:101BD0000C48007800F0010020B9BDF8001069A0A1
:101BE00016F072F800BF6A46002128200AF0FAFBBE
:101BF0005CE60000650900204F4B00004064024095
:101C0000F60A0020300100204543323045434F485A
:101C10003A25730A0000000041542B434F50533FB4
:101C200000000000E42E002041542B4353510000DB
:101C3000A82E002041542B434D47523D0000000088
:101C4000D42F00202B434D47533A00005C2F002037
:101C500041545600582E002041542B434D47460016
:101C6000F82E002041542B434D47443D3F000000D7
:101C7000342F002041542B435343533D00000000B8
:101C8000842F002041542B43504D533D0000000051
:101C90000C2F002041542B4346554E00982F002016
:101CA00041542B434D47443D00000000202F0020AD
:101CB00041542B434D45453D320000006C2E002021
:101CC00041542B47534E0000802E002041542B439B
:101CD00050494E00942E002041542B43524547005A
:101CE000BC2E002041542B434752454700000000C2
:101CF000D02E0020504F574552454420444F574E58
:101D000000000000AC2F002041540D0D0A4F4B0D78
:101D10000A000000442E00200D0A4F4B0D0A00005F
:101D2000415445310D0A4F4B0D0A00002B434D47DE
:101D3000523A20004D41494C43454E5445525F4F65
:101D40004B5F454C53453A25730A000041542B43E1
:101D50004D4752003E000000482F00202B514E54AA
:101D6000503A0000702F002052445900C02F00202C
:101D70004D41494C43454E5445525F454C53453ABD
:101D800025730A004D41494C43454E5445525F4529
:101D900052523A25640A000008B57FE017F0F4F9C2
:101DA0000446002C74D006F02DFF21463CA015F00F
:101DB0008BFF202C33D00CDC042C21D004DC012C34
:101DC00014D0022C62D116E0082C1ED0102C5DD14C
:101DD00020E0482C47D004DC402C25D0442C55D1A1
:101DE0004AE0532C36D0802C50D129E0012112201A
:101DF00005F0FAFA4BE001211B2005F043FA46E01A
:101E00000121132005F0F0FA41E00121112005F035
:101E1000EBFA3CE00121102005F0E6FA37E0012161
:101E20000D2005F0E1FA32E02048406820F48030CF
:101E300000F580301D4948603C200CF0ADFB26E0E9
:101E40001A48406820F480301849486000200CF09F
:101E5000A3FB1CE00A20164908706A4600211548B9
:101E60000AF0FAF813E01020114908706A460021C0
:101E700010480AF0F1F80AE007200D4908706A4698
:101E800000210C480AF0E8F801E001E000BF00BFC3
:101E90006A460021C8200AF0A5FA00BF7EE70000CC
:101EA0006B65796765743A25640D0A00300100207E
:101EB00024010020B46B002008B500F02AF80CF0D3
:101EC00075FF684609F010FEBDF8000028B10B4808
:101ED000008840F0010009490880FEF757FF0BE039
:101EE0000748406980F48070054948616A460021CE
:101EF0004FF47A700AF076FAF2E70000240000202E
:101F0000000002401FB568460CF00AF8019804B0C2
:101F100010BD10B500F0B7FD00F018F807F082FE14
:101F20000CF0E6FB02F0FAFE17F06CF900F026FE6A
:101F300007F098FE012108030BF0B2FF16F0E2FF54
:101F400008F006FF16F07CFD10BD000070B5FFF72D
:101F5000D9FF044603480068B4FBF0F528460AF0B0
:101F600075FB70BD2CA7010800BFFEE77CB5214CB6
:101F70000546216831F8220F4A8D104408804888B0
:101F8000CA8D10444880284604F07CFA2168498CA8
:101F9000ADF800104618284606F0A4FB3044401E59
:101FA000ADF8040004F082FB2168898CADF80210C2
:101FB0000844401EADF8060068460EF0B5FE04E089
:101FC000284602F0E3FE0EF071FE0028F8D10A2D3B
:101FD00004D0BDF804002168401C4884206830F813
:101FE000221F428D891A01804188C28D891A418041
:101FF0007CBD0000E801002010B500F021F800F0E1
:1020000019F810BD10B5002400BF00BFFEF7F0F8AE
:10201000044600BF00BF1021054808F009FE00BFBC
:1020200000BF2046FEF7E8F800BF00BF10BD00006B
:102030000C22002010B5FFF7E5FF10BD00BFFEE742
:1020400010B500200249086000F00AF810BD000039
:1020500018010020014908607047000018010020A5
:1020600010B5FFF74FFF04460848006840F0807045
:10207000064908600020064948600846006840F0AC
:10208000010008602046FFF7E5FF10BDFCED00E011
:10209000001000E0F0B50346012901D0022901D16A
:1020A0000C315B1E4D1C05EB4505052695FBF6F531
:1020B000022606FB012635441D441846DE1703EBB5
:1020C000967605EBA605642693FBF6F6AD1B4FF45A
:1020D000C87693FBF6F63544072695FBF6F706FB24
:1020E0001755ECB2601CC0B2F0BD000000B585B061
:1020F0000020194906220E23CDE9002102901E225C
:10210000014601200DF0FCFD1449086014A00021D7
:102110000623CDE90131CDE90310104800680E23F4
:102120001E22009001200CF0BCFF0F4908600F49EF
:102130000D4800680DF014F84FF0FF310A480068B0
:102140000DF064F800234FF47A72194603480068D2
:102150000DF0A8FD05B000BD718401084400002009
:1021600032303A32300000004C000020BCA7010899
:1021700008B56B4600223EA1424809F077FB6B464A
:10218000002241A1434809F071FB6B46002242A1A5
:10219000444809F06BFB6B46002243A1454809F017
:1021A00065FB6B46002244A1464809F05FFB6B4685
:1021B000002245A1474809F059FB6B46002246A181
:1021C000484809F053FB6B46002247A1494809F0F3
:1021D0004DFB6B46002248A14A4809F047FB6B467D
:1021E000002249A14B4809F041FB6B4600224AA15D
:1021F0004C4809F03BFB6B4600224BA14D4809F0CF
:1022000035FB6B4600224CA14F4809F02FFB6B4673
:1022100000224EA1504809F029FB6B4600224FA135
:10222000514809F023FB6B46002250A1524809F0A7
:102230001DFB6B46002251A1534809F017FB6B466A
:10224000002252A1544809F011FB6B46002253A111
:10225000554809F00BFB6B46002254A1564809F083
:1022600005FB6B46002255A15A4808F009FE08BD3F
:1022700053656D4F665265635F454332305F4F4B28
:1022800000000000442E002053656D4F66415456F7
:1022900000000000582E002053656D4F66434D45E9
:1022A000450000006C2E002053656D4F6647534E6D
:1022B00000000000802E002053656D4F664350499A
:1022C0004E000000942E002053656D4F664353511D
:1022D00000000000A82E002053656D4F6643524554
:1022E00047000000BC2E002053656D4F66434752E7
:1022F00045470000D02E002053656D4F66434F5078
:1023000053000000E42E002053656D4F66434D4797
:1023100046000000F82E002053656D4F6643504D77
:10232000535300000C2F002053656D4F66434D47FB
:1023300044000000202F002053656D4F66434D4739
:1023400044494E4445580000342F002053656D4FDA
:1023500066434D4753000000482F002053656D4FE2
:1023600066434D47534F4B005C2F002053656D4F24
:1023700066514E5450000000702F002053656D4F81
:102380006643534353000000842F002053656D4F74
:10239000664346554E000000982F002053656D4F50
:1023A0006651504F57440000AC2F002053656D4FCD
:1023B0006652445900000000C02F0020464C41479F
:1023C00020466C616747726F704F665F434D47529E
:1023D00000000000D42F002000B585B00020164971
:1023E0000622CDE900210290144843690E210269BA
:1023F00000200DF085FC12490860124840F60501E6
:1024000000220223CDE90132CDE903100C48006817
:1024100000900A484069A0F10E03084800210269B3
:10242000084607F0E0FD08490860012106480068F9
:1024300007F041FE05B000BD897D0108EC210020B8
:1024400094000020100100209800002000B585B005
:10245000002020490222CDE9002102901E48436954
:102460000E21026900200DF04BFC1C4908601CA0E5
:1024700000210E220223CDE90132CDE903101748D5
:1024800000680090144810231821026900200CF005
:1024900008FE1549086015A000210E220223CDE98F
:1024A0000132CDE903100D48006800900A480C2362
:1024B0002C21026900200CF0F4FD0F490860074947
:1024C00008680EF0F5F9054800680C49086005B089
:1024D00000BD0000617E0108EC21002060000020AA
:1024E000636D636300000000680000203230313803
:1024F0002D31302D303900006C00002040000020CC
:1025000000B585B0002018490422CDE900210290D1
:10251000164843690E21026900200DF0F1FB1449B1
:10252000486014484FF4006100220223CDE90132D3
:10253000CDE903100E48406800900C484069A0F1B6
:102540000E030A4800210269084607F04CFD0A49BB
:10255000086001210848006807F0ADFD06480068E2
:102560000EF0A6F905B000BD697F0108EC2100203E
:10257000600000209C0000207000002000B585B0A5
:10258000002016490622CDE9002102901448436933
:102590000E21026900200DF0B3FB124908601248B9
:1025A00040F6010100220223CDE90132CDE90310FA
:1025B0000C48006800900A484069A0F10E030848E2
:1025C00000210269084607F00EFD08490860012154
:1025D0000648006807F06FFD05B000BDC180010826
:1025E000EC21002074000020C000002078000020B2
:1025F00000B587B054480078C0F3800000287DD033
:10260000002052490622CDE900210290504843693A
:102610000E21026900200DF073FB4E490860142062
:1026200040F6030100220623CDE90132CDE9031073
:10263000484800680E23302200210090502002F00C
:1026400039F945490860454A01214348006802F0CC
:1026500093F900214048006802F088FA40493E485A
:10266000006802F002FA4FF07F4201213A48006808
:1026700002F091FA4FF496703AA101220223CDE9BB
:102680000232CDE9041040F6020032490968CDE972
:1026900000102F484069A0F10E032D480E21026959
:1026A000002008F01AF9304908602D492E480068CA
:1026B00008F020FA4FF0FF3201212B48006808F0A3
:1026C0007DFA4FF07F4201212748006808F0E7F9C2
:1026D00000212548006808F0DCF900212248006844
:1026E00008F0DAF900212048006808F037FA1E489F
:1026F000006808F07CFA1748006800E015E00DF06B
:102700009FFA144800680EF0D3F81849097801F0D0
:10271000030001F0D3FE164A9179144A127802F0B0
:102720000300002204F0ACFC0BE0124800680EF03D
:10273000C3F9104800680DF083FA0E4800680EF0E7
:10274000B7F807B000BD000010000020A18101080B
:10275000EC2100207C000020800000203F3F3FFF54
:10276000BCA7010800000000840000208C000020AD
:1027700014050020400000200246094B9A4201D275
:10278000084801E00648103801F000531BB1064B21
:102790000B40C36002E0044B0B40836070470000B5
:1027A00010640240006002407D0F7D0F21B102687D
:1027B00042F00102026003E0026822F001020260BE
:1027C00070470000016821F00101016000210160F3
:1027D00041608160C1600161212141614A498842B3
:1027E00004D13D21484A103A91608CE046491831A5
:1027F000884205D14FF47461434A103A916082E0F7
:1028000041493031884205D14FF474113E4A103AA3
:10281000916078E03C494831884205D14FF07461BD
:10282000394A103A91606EE037496031884204D1EC
:102830003649354A103AD16065E0334978318842EB
:1028400004D13349304A103AD1605CE02E499031CE
:10285000884204D12F492C4A103AD16053E02A49CA
:10286000A831884205D14FF03D51274A103AD16036
:1028700049E02949884204D13D21274A083A11609C
:1028800041E025491831884205D14FF47461224A4C
:10289000083A116037E020493031884205D14FF4C1
:1028A00074111D4A083A11602DE01B4948318842D5
:1028B00005D14FF07461184A083A116023E01649B7
:1028C0006031884204D11149134A121F11601AE085
:1028D00011497831884204D10D490F4A121F116005
:1028E00011E00D499031884204D10A490A4A121F69
:1028F000116008E00849A831884204D14FF03D51E9
:10290000054A121F11607047106002403D00002010
:10291000400F002000003D201064024010B500224E
:102920000268134B1A40CC680B6823434C6923435D
:102930008C692343CC6923430C6A23434C6A2343A9
:102940008C6A23434C6B23438C6B23431A430260F2
:10295000426922F00702D1E90B3423431A43426152
:102960000B6943604B6883608B68C36010BD0000D7
:102970003F801CF04160704700B58FB000201B49BC
:102980000870012148050BF08BFA1948FFF71AFF70
:102990004FF0006000901748019017480290002007
:1029A0000390AA200490002005904FF480600690C8
:1029B00000200790089009904FF400300A90002002
:1029C0000B9001200C9000200D900E906946084855
:1029D000FFF7A4FF012240210648001F0CF083FCF2
:1029E00001210348FFF7E2FE0FB000BD10080020F0
:1029F00088600240044400406607002000B58FB0A4
:102A000000201C490870012188050BF049FA1A487A
:102A1000FFF7D8FE4FF0006000901848019018486A
:102A20000290002003904FF4C8700490002005909D
:102A30004FF48060069000200790089009904FF4B2
:102A400040300A9000200B9001200C9000200D9047
:102A50000E9069460848FFF761FF012240210748B0
:102A6000001F0CF040FC01210348FFF79FFE0FB050
:102A700000BD0000F50A002040640240041001403F
:102A800065090020704710B500F004F8FFF774FFE7
:102A900010BD000000B587B0012108460BF000FA18
:102AA000012148040BF00CFA07220321314802F0FF
:102AB00047FA072202212F4802F042FA00208DF83F
:102AC0001A0001208DF81B0002208DF81800042048
:102AD000059000208DF8190005A9264802F0E8F9B4
:102AE0000820059005A9234802F0E2F94FF4E130EF
:102AF00001900020ADF80800ADF80A00ADF80C0018
:102B0000ADF810000C20ADF80E0001A91A480CF029
:102B10004FFC26208DF8000002208DF801000020D7
:102B20008DF8020001208DF80300684608F06AF96C
:102B3000202111480CF0C2FB002240F225510E4822
:102B40000CF011FC002240F226610B480CF00BFC4B
:102B5000002240F2277108480CF005FC012240F2E7
:102B6000244105480CF0FFFB012103480CF0AFFBAA
:102B700007B000BD00000240004400401CB5012128
:102B800004200BF08DF94FF40050009001208DF8D7
:102B9000040000208DF805008DF8060002208DF855
:102BA00007006946014802F083F91CBD0008024095
:102BB0007CB528480078C0F38000002843D000F09E
:102BC000CBF8044634B92348006820F480402149FA
:102BD000086037E0002500BF00BFFDF709FB054690
:102BE00000BF00BF1CA001F053FB00BF00BF284680
:102BF000FDF702FB00BF00BF01A800231A4640F604
:102C0000AC510090174808F057FEBDF8040080B999
:102C10004FF07F4004F044FB0E2365220021462044
:102C200002F0D8FE0B48006820F480400949086093
:102C300007E00848006820F4804000F5804005491E
:102C4000086000BF00BF03480088C0F3803080F0F8
:102C500001007CBD1000002041542B4346554E3DE1
:102C6000310D0A00982F00207CB536480078C0F35B
:102C70008000002860D000F06FF80446012C1DD1C0
:102C80004FF07F4004F00CFB0E236522002146200C
:102C900002F0A0FE2B480088C0F3803000284AD103
:102CA0002848006820F0200026490860084600688F
:102CB00020F4804000F5804008603CE0002500BF23
:102CC00000BFFDF795FA054600BF00BF1EA001F04A
:102CD000DFFA00BF00BF2846FDF78EFA00BF00BF35
:102CE00001A800231A4640F6AC510090194808F09C
:102CF000E3FDBDF80400B8B94FF07F4004F0D0FA0E
:102D00000E2365220021462002F064FE0D48006873
:102D100020F020000B4908600846006820F480403D
:102D200000F58040086005E00648006820F4804017
:102D30000449086000BF00BF02480088C0F380302B
:102D40007CBD00001000002041542B4346554E3DF1
:102D5000340D0A00982F0020FEB52C480078C0F3EF
:102D6000800000284DD04FF0FF300290002400BFBB
:102D700000BFFDF73DFA044600BF00BF24A001F0EC
:102D800087FA00BF00BF2046FDF736FA00BF00BF3C
:102D900001A800231A4640F2DC5100901F4808F0B9
:102DA0008BFDBDF8040058BB00251DA11E48FDF792
:102DB00068FA064602AA1DA1FDF792FAC5B2012DD6
:102DC0001DD10298012806D11048006820F48040E7
:102DD0000E49086013E00298042808D10B480068E7
:102DE00020F4804000F580400849086007E007486B
:102DF000006820F4804000F580400449086000BF6E
:102E000000BF02480088C0F38030FEBD10000020E3
:102E100041542B4346554E3F0D0A0000982F002089
:102E20002B4346554E3A2000F60A00202B434655C8
:102E30004E3A2025640D0A001CB52648006820F093
:102E4000010024490860002400BF00BFFDF7D0F94D
:102E5000044600BF00BF20A001F01AFA00BF00BF67
:102E60002046FDF7C9F900BF00BF01A800231A469C
:102E70004FF4487100901A4808F01EFDBDF8040098
:102E800040B91448006820F00100401C1149086056
:102E900001201CBD0F48006820F001000D490860AA
:102EA00000BF00BFFDF7A4F9044600BF00BFBDF896
:102EB00004100CA014F008FF0D490EA014F004FF3C
:102EC00000BF00BF2046FDF797F900BF00BF0020FC
:102ED000DFE700001000002041540D0A0000000050
:102EE000442E00204154204552523A25640A0000E5
:102EF000F60A0020656332303A25730A00000000AC
:102F00001CB5002400BF00BFFDF772F9044600BFE6
:102F100000BF1FA001F0BCF900BF00BF2046FDF7B5
:102F20006BF900BF00BF01A800231A464FF4487197
:102F30000090194808F0C0FCBDF8040040B91748DB
:102F4000006820F00200801C1449086001201CBDAC
:102F50001248006820F002001049086000BF00BF5E
:102F6000FDF746F9044600BF00BFBDF804100CA0F1
:102F700014F0AAFE0E490FA014F0A6FE00BF00BF79
:102F80002046FDF739F900BF00BF0020DFE7000051
:102F9000415456310D0A0000582E00201000002028
:102FA00041545631204552523A25640A000000002F
:102FB000F60A0020656332303A25730A00000000EB
:102FC0001CB52748006820F010002549086000243F
:102FD00000BF00BFFDF70CF9044600BF00BF21A0F1
:102FE00001F056F900BF00BF2046FDF705F900BF0C
:102FF00000BF01A800231A464FF4487100901C48F6
:1030000008F05AFCBDF8040038B91548006820F0F3
:1030100010001030124908601CE000BF00BFFDF72F
:10302000E7F8044600BF00BFBDF8041011A014F07B
:103030004BFE144914A014F047FE00BF00BF204609
:10304000FDF7DAF800BF00BF0548006820F0100067
:103050000349086002480078C0F300101CBD00005E
:103060001000002041542B434D45453D320D0A00D0
:103070006C2E002041542B434D4545204552523A79
:1030800025640A00F60A0020656332303A25730A87
:10309000000000007CB55748006820F080005549CA
:1030A0000860002400BF00BFFDF7A2F8044600BF7F
:1030B00000BF51A001F0ECF800BF00BF2046FDF7B3
:1030C0009BF800BF00BF01A800231A464FF44871C7
:1030D00000904C4808F0F0FBBDF80400002866D1D1
:1030E00049A14B48FDF7CDF805465DB14148006860
:1030F00020F0800080303F49086008460078C0F327
:10310000C0107CBD43A14248FDF7BBF8002847D062
:1031100000BF00BFFDF76CF8044600BF00BF3FA032
:1031200001F0B6F800BF00BF2046FDF765F800BF0C
:1031300000BF01A800231A4640F6B831009031487C
:1031400008F0BAFBBDF8040068B901AA00214FF4E9
:10315000FA7009F047F92748006820F080008030B5
:103160002449086022E02348006820F080002149BB
:10317000086000BF00BFFDF73BF8044600BF00BF7A
:1031800023492BA014F0A0FDBDF804102BA014F0CF
:103190009BFD00BF00BF2046FDF72EF800BF05E0F5
:1031A0001448006820F08000124908601CE000BF4D
:1031B00000BFFDF71DF8044600BF00BFBDF80410B6
:1031C00023A014F081FD124926A014F07DFD00BF5C
:1031D00000BF2046FDF710F800BF00BF054800689B
:1031E00020F080000349086002480078C0F3C01056
:1031F00087E700001000002041542B4350494E3F08
:103200000D0A0000942E0020524541445900000050
:10321000F60A002053494D2050494E0041542B439B
:1032200050494E3D343739373434340D0A000000EC
:103230004543323052453A25730A000041542B432E
:1032400050494E3D204552523A25640A0000000084
:1032500041542B4350494E3F204552523A25640A6F
:1032600000000000656332303A25730A0000000058
:103270002DE9FC4105460C4617463E480068C0F360
:103280008140A84206D0284600F0A0FE10B90020D8
:10329000BDE8FC81002600BF00BFFCF7A9FF064681
:1032A00000BF00BF1E21002015F0C4FD804600BFF6
:1032B00000BF3046FCF7A0FF00BF00BF1E21404604
:1032C000FCF7D4FF052C1ED2DFE804F003090E132F
:1032D00018003A4628A1404614F006FD13E02AA142
:1032E000404614F001FD0EE02BA1404614F0FCFC1A
:1032F00009E02DA1404614F0F7FC04E02EA1404661
:1033000014F0F2FC00BF00BF00BF00BFFCF770FF6D
:10331000064600BF00BF404600F0BAFF414600200D
:1033200015F076FD00BF00BF3046FCF765FF00BF1B
:1033300000BF01A800231A464FF4487100902248AC
:1033400008F0BAFABDF8040060B9284601F0B6F8F2
:103350000848006820F4801000F5801005490860D6
:10336000012095E70348006820F4801001490860B7
:1033700000208DE71000002041542B434D47443D71
:1033800025640D0A0000000041542B434D47443D85
:10339000312C310D0A00000041542B434D47443D70
:1033A000312C320D0A00000041542B434D47443D5F
:1033B000312C330D0A00000041542B434D47443D4E
:1033C000312C340D0A000000202F00201CB50024F1
:1033D00000BF00BFFCF70CFF044600BF00BF1FA0EA
:1033E00000F056FF00BF00BF2046FCF705FF00BFFE
:1033F00000BF01A800231A464FF4FA710090194843
:1034000008F05AFABDF8040040B91748006820F0E7
:10341000080008301449086001201CBD12480068EB
:1034200020F008001049086000BF00BFFCF7E0FE74
:10343000044600BF00BFBDF804100CA014F044FC0B
:103440000E490FA014F040FC00BF00BF2046FCF75F
:10345000D3FE00BF00BF0020DFE70000415445312C
:103460000D0A0000442E0020100000204154453178
:10347000204552523A25640A00000000F60A002056
:10348000656332303A25730A000000001CB52748F6
:10349000006820F0400025490860002400BF00BFFC
:1034A000FCF7A6FE044600BF00BF21A000F0F0FE1E
:1034B00000BF00BF2046FCF79FFE00BF00BF01A871
:1034C00000231A464FF4487100901C4808F0F4F9A4
:1034D000BDF8040038B91548006820F040004030BD
:1034E000124908601CE01148006820F040000F49B4
:1034F000086000BF00BFFCF77BFE044600BF00BFB2
:10350000BDF804100EA014F0DFFB114911A014F057
:10351000DBFB00BF00BF2046FCF76EFE00BF00BF14
:1035200002480078C0F380101CBD0000100000208D
:1035300041542B47534E0D0A00000000802E0020FE
:1035400041542B47534E204552523A25640A0000FD
:10355000F60A0020656332303A25730A0000000045
:103560007CB5002033490870002400BF00BFFCF781
:103570003FFE044600BF00BF2FA000F089FE00BF41
:1035800000BF2046FCF738FE00BF00BF01A80023A3
:103590001A464FF47A7100902A4808F08DF9BDF868
:1035A000040000282AD128A12948FCF76AFE064613
:1035B000204B1B1D1A1D27A1FCF792FEC5B2022D40
:1035C00003D101201B49087016E00020194908703A
:1035D0000B20486000BF00BFFCF70AFE044600BF96
:1035E00000BF1B4922A014F06FFB00BF00BF2046A4
:1035F000FCF702FE00BF00BF01207CBD00200D498A
:1036000008700B20486000BF00BFFCF7F1FD0446C6
:1036100000BF00BF0E4ABDF8041019A014F054FBFF
:1036200000BF00BF2046FCF7E7FD00BF00BF002041
:10363000E3E70000FC04002041542B434F50533F6C
:103640000D0A0000E42E00202B434F50533A200077
:10365000F60A00202B434F50533A20252A642C258C
:103660002A642C22255B5E225D222C25640000004A
:103670003163706F7320656332303A25730A00003E
:10368000434F5053204552523A25640A3163706FBC
:103690007320656332303A25730A00001CB500249C
:1036A00000BF00BFFCF7A4FD044600BF00BF1FA081
:1036B00000F0EEFD00BF00BF2046FCF79DFD00BFFF
:1036C00000BF01A800231A464FF4487100901A4821
:1036D00008F0F2F8BDF8040048B91848006820F472
:1036E000007000F500701549086001201CBD00BF86
:1036F00000BFFCF77DFD044600BF00BFBDF804100D
:103700000FA014F0E1FA124912A014F0DDFA00BF84
:1037100000BF2046FCF770FD00BF00BF07480068EF
:1037200020F40070054908600020DFE741542B4376
:103730005245473F0D0A0000BC2E0020100000201B
:1037400043524547204552523A25640A0000000082
:10375000F60A0020656332303A25730A0000000043
:103760007CB52F48006820F480702D490860002443
:1037700000BF00BFFCF73CFD044600BF00BF29A00E
:1037800000F086FD00BF00BF2046FCF735FD00BFFE
:1037900000BF01A800231A464FF47A710090244814
:1037A00008F08AF8BDF80400A8B922A12348FCF764
:1037B00068FD0646224B234A23A1FCF791FDC5B2C2
:1037C000022D07D11648006820F4807000F5807043
:1037D000134908601FE01248006820F48070104907
:1037E00008604FF0FF30164908601649086000BFB6
:1037F00000BFFCF7FDFC044600BF00BF0F4ABDF848
:10380000041014A014F060FA00BF00BF2046FCF7BB
:10381000F3FC00BF00BF02480088C0F300207CBD5D
:103820001000002041542B4353510D0A00000000AA
:10383000A82E00202B4353513A200000F60A002006
:1038400018000020140000202B4353513A20256417
:103850002C256400435351204552523A25640A43B3
:103860005351656332303A25730A000010B52F4872
:10387000006820F004002D4908604FF400512C48E6
:1038800001F081FB002838D12848006820F400406E
:103890002649086008460078C0F38000F8B9FFF7B1
:1038A000CBFA38B3FFF792FD20B3FFF729FB08B33B
:1038B000FFF786FBF0B1FFF7E9FDD8B1FFF7EAFBB0
:1038C000C0B1032000F076FCA0B11848006820F0D9
:1038D0000400001D154908600BF066FE0AE013485D
:1038E0000078C0F3800028B91048006820F0040078
:1038F0000E490860FFF730FA13E00C48006820F426
:10390000804000F58040094908600846006820F0C2
:10391000040008600846006820F4004000F50040FC
:10392000086002480078C0F3800010BD100000203D
:103930000008024010B523480088C0F380300028FA
:1039400038D120480078C0F3800020B31D480078AB
:10395000C0F3401070BB0B201B494860FFF79AFB77
:1039600088B1FFF7FDFE28B3FFF798FE10B3FFF70D
:10397000F7FDF8B11348006820F02000203011490D
:103980000860012010BD0F48006820F020000D499C
:1039900008600020F6E70B480078C0F3401008B13B
:1039A0000120EFE70748006820F020000549086083
:1039B0000020E7E70348006820F020000149086084
:1039C0000020DFE710000020FC0400201CB50024CC
:1039D00000BF00BFFCF70CFC044600BF00BF26A0E0
:1039E00000F056FC00BF00BF2046FCF705FC00BFFE
:1039F00000BF01A800231A4643F6982100902248F0
:103A000007F05AFFBDF80400F8B94FF400501F4901
:103A1000088001461D48183801F0B5FA01280DD17B
:103A20001B48006820F00400194908600846006837
:103A300020F4004000F5004008600CE014480068E5
:103A400020F400401249086005E01148006820F4A5
:103A500000400F4908604FF07F4003F021FC0E2327
:103A600065220021462001F0B5FF0BF09DFD0848BE
:103A70000088C0F3C0301CBD41542B51504F5744F7
:103A80003D310D0A00000000AC2F00201808024054
:103A9000100000201CB534480068C0F30060002806
:103AA0005BD13148006820F0807000F180702E49B1
:103AB00008604FF400502D49088001462B481A3801
:103AC00001F061FA78BB01A800231A4643F6982159
:103AD0000090274807F0F0FEBDF8040058B92248CE
:103AE000006820F40040204908600846006820F083
:103AF0000400086025E0FFF79FF930B11A4800681C
:103B000020F40040184908601BE01748006820F4C2
:103B1000004000F50040144908600846006820F0A5
:103B2000040008600DE0FFE70F48006820F4004043
:103B300000F500400C4908600846006820F00400C9
:103B400008604FF07F4003F0ABFB0E23652200219D
:103B5000462001F03FFF0BF027FD03480088C0F32B
:103B6000C03080F001001CBD100000201A08024087
:103B7000C02F00202DE9FE4F06460F4614460021B7
:103B800040F20D106043714A02F81010704800684E
:103B9000C0F30140022806D0022000F0AFF910B9AE
:103BA0000020BDE8FE8F6A480068C0F38140B04243
:103BB00005D0304600F00AFA08B90020F1E74FF0CE
:103BC000000800BF00BFFCF713FB804600BF00BF2A
:103BD0004FF4C871002015F02DF905464FF4C87157
:103BE0002846FCF743FB3A465AA1284614F07CF8D5
:103BF000284600F04DFB00BF00BF4046FCF7FCFA32
:103C000000BF00BF02A84FF448714FF48273002236
:103C1000CDE900100321534807F058F9BDF808001A
:103C200000286AD100BF00BFFCF7E2FA804600BF5F
:103C300000BF6421002015F0FDF8824600BF00BFE0
:103C40004046FCF7D9FA00BF00BF64215046FCF79C
:103C50000DFB40F20D1060433C4A02EB4000467001
:103C6000F9B240F20D10604302EB400041803EA1EA
:103C70003F48FCF706FB834640F20D106043334992
:103C800001EB40001030CDE9000540F20D1060431B
:103C900001EB4000021D534636A15846FCF720FBBD
:103CA00000F0FF09B9F1040F1FD140F20D1060437D
:103CB000264A02EB400000F126010022504600F0A7
:103CC0007DFC40F20D106043204A02EB400000F101
:103CD0008A010022284600F071FC012140F20D10FB
:103CE00060431A4A02F8101006E0002140F20D105D
:103CF0006043164A02F810100BE0002140F20D104C
:103D00006043124A02F81010BDF8081024A013F006
:103D1000DBFF00BF00BFFCF76BFA804600BF00BFAF
:103D20005146002015F074F82946002015F070F86F
:103D300000BF00BF4046FCF75FFA00BF00BF40F283
:103D40000D106043014911F810002AE74C050020CE
:103D50001000002041542B434D47523D25640D0A6D
:103D600000000000D42F00202B434D47523A200082
:103D7000F60A00202B434D47523A2022255B5E2253
:103D80005D222C22255B5E225D222C2C22255B5E8F
:103D9000225D220D0A255B5E2F2F725D0000000060
:103DA000454332305F5265616431534D5331204594
:103DB00052523A25640A00002DE9FC4104460D46A2
:103DC0000026207870B300BF00BFFCF711FA06464A
:103DD00000BF00BF4FF4C871002015F02BF88046DB
:103DE0006421002015F026F807464FF4C8714046BC
:103DF000FCF73CFA64213846FCF738FA01223946D0
:103E0000204600F0DBFB3A4634A1404613F06CFF3D
:103E1000404600F03DFA00BF00BF3046FCF7ECF929
:103E200000BF00BF01A800231A464FF4487100905C
:103E30002E4807F041FDBDF8040090BB00BF00BF55
:103E4000FCF7D6F9064600BF00BF4FF4C8714046E4
:103E5000FCF70CFA01224146284600F0AFFB404631
:103E600000F016FA22A000F013FA00BF00BF30469F
:103E7000FCF7C2F900BF00BF01A800231A4640F6B4
:103E8000C41100901B4807F017FDBDF8040048B9A5
:103E90001948006820F4800000F580001649086089
:103EA0000DE006E01448006820F480001249086024
:103EB00005E01148006820F480000F490860414681
:103EC000002014F0A5FF3946002014F0A1FF0A4895
:103ED0000068C0F38050BDE8FC81000041542B43D2
:103EE0004D47533D222573220D0A0000482F002024
:103EF0001A0D0A005C2F0020100000207CB504463B
:103F0000002500BF00BFFCF773F9054600BF00BFE6
:103F1000012C02D0022C08D103E020A000F0B8F957
:103F200004E021A000F0B4F900E000BF00BF00BF32
:103F300000BF2846FCF760F900BF00BF01A80023BE
:103F40001A464FF4487100901A4807F0B5FCBDF8C6
:103F5000040038B91848006864F311401649086035
:103F600001207CBD00BF00BFFCF742F9054600BF41
:103F700000BFBDF8041011A013F0A6FE00BF00BFE3
:103F80002846FCF739F900BF00BF0B48006820F451
:103F90004030094908600020E3E7000041542B430A
:103FA0004D47463D300D0A0041542B434D47463D99
:103FB000310D0A00F82E002010000020434D474626
:103FC000204552523A25640A00000000F0B58BB03B
:103FD0000446002500BF00BFFCF70AF9054600BFF4
:103FE00000BF012C04D0022C06D0032C0CD107E01A
:103FF00047A000F04DF908E04CA000F049F904E0BA
:1040000051A000F045F900E000BF00BF00BF00BFB5
:104010002846FCF7F1F800BF00BF0AA800231A46A3
:104020004FF4487100904F4807F046FCBDF8280057
:10403000002851D14CA14E48FCF723F9074609A8A6
:1040400008A907AA06ABCDE90032CDE9021005ABFD
:1040500004AA48A13846FCF743F9C6B2062E33D16C
:10406000012C04D0022C0CD0032C22D113E0049894
:10407000C0B24949887008700598C0B2C8704870CD
:1040800018E00498C0B24449087108700598C0B29D
:10409000487148700EE00498C0B23F4988700870BB
:1040A0000598C0B2C870487008980871099848719E
:1040B00000E000BF00BF3948006864F3934037490F
:1040C000086001200BB0F0BD3448006820F44020A7
:1040D000324908600020F5E700BF00BFFCF788F810
:1040E000054600BF00BFBDF828102DA013F0ECFD61
:1040F00000BF00BF2846FCF77FF800BF00BF27487D
:10410000006820F44020254908600020DAE700001C
:1041100041542B43504D533D22534D222C22534D9D
:10412000222C22534D220D0A0000000041542B4343
:10413000504D533D224D45222C224D45222C224DDF
:1041400045220D0A0000000041542B43504D533DC1
:1041500022534D222C22534D222C224D45220D0A52
:10416000000000000C2F00202B43504D533A20003C
:10417000F60A00202B43504D533A2025642C256429
:104180002C25642C25642C25642C25640D0A0D0A2D
:104190004F4B0D0A00000000140500201000002005
:1041A00043504D535F534554204552523A25640ABB
:1041B000000000007CB50446002500BF00BFFCF7EE
:1041C00017F8054600BF00BF012C04D0022C06D012
:1041D000032C0CD107E01CA000F05AF808E01EA048
:1041E00000F056F804E020A000F052F800E000BF14
:1041F00000BF00BF00BF2846FBF7FEFF00BF00BFA7
:1042000001A800231A464FF4487100901B4807F09C
:1042100053FBBDF8040008B901207CBD00BF00BFFE
:10422000FBF7E6FF054600BF00BFBDF8041014A071
:1042300013F04AFD00BF00BF2846FBF7DDFF00BFBB
:1042400000BF0020E9E7000041542B435343533D96
:104250002247534D220D0A0041542B435343533DF3
:1042600022495241220D0A0041542B435343533DEE
:104270002255435332220D0A00000000842F0020F3
:1042800043534353204552523A25640A000000002C
:1042900010B50446214602480BF047FA10BD000055
:1042A000001001402DE970478BB005464FF0000823
:1042B00000BF00BFFBF79CFF804600BF00BF15B1E9
:1042C000012D08D103E05DA0FFF7E2FF03E064A049
:1042D000FFF7DEFF00BF00BF00BF00BF4046FBF797
:1042E0008BFF00BF00BF0AA800231A4640F2DC5132
:1042F0000090644807F0E0FABDF8280000287DD15E
:1043000000BF00BFFBF774FF804600BF00BF4FF443
:104310009671002014F08EFD81464FF49671484648
:10432000FBF7A4FF00BF00BF4046FBF765FF00BFDF
:1043300000BF55A15648FBF7A4FF824607A808A96D
:1043400009AA04ABCDE90032CDE9021005AB06AAFB
:1043500050A15046FBF7C4FFC6B2062E56D10998AD
:10436000102802DC0998102806D109981038099005
:104370000498401C049002E0099808300990DDE997
:1043800004210698FDF786FE04460A21069890FB54
:10439000F1F201FB12000A22069991FBF2F191FB66
:1043A000F2F302FB131101EB810100EB41000690D7
:1043B000FBB2DDF81CC00CF0FF02DDF820C00CF0F1
:1043C000FF01DDF824C00CF0FF000AF083F823465B
:1043D000DDF810C00CF0FF02DDF814C00CF0FF0196
:1043E000DDF818C00CF0FF000AF062F832480068EF
:1043F00020F4000000F500002F4900E00DE0086007
:1044000001200BF04FF80BF0CFF805E02A480068C8
:1044100020F400002849086005E02748006820F4DF
:104420000000254908604946002014F0F1FC2248AC
:104430000068C0F3C0500BB0BDE8708741542B51E9
:104440004E54503D312C223131342E3131382E37FB
:104450002E313631222C3132332C300D0A0000003F
:1044600041542B514E54503D312C223131342E3198
:1044700031382E372E313631222C3132332C310D5A
:104480000A000000702F00202B514E54503A20009B
:10449000F60A00202B514E54503A20252A642C2233
:1044A00025642F25642F25642C25643A25643A253C
:1044B000642B252A64220000100000207CB50446ED
:1044C00021480068C0F38140A04205D02046FFF794
:1044D0007DFD08B900207CBD002500BF00BFFBF7B3
:1044E00087FE054600BF00BF18A0FFF7D1FE00BF42
:1044F00000BF2846FBF780FE00BF00BF01A80023D5
:104500001A464FF448710090134807F0D5F9BDF8EA
:10451000040088B91149124814F0AAFCC6B20F4829
:10452000801F06700848006820F4001000F5001095
:10453000054908600120CEE70348006820F4001018
:10454000014908600020C6E71000002041542B43B9
:104550004D47443D3F0D0A00342F00201A0500202E
:10456000F60A00200146302905DB392903DCA1F1D8
:104570003000C0B27047412905DB462903DCA1F1B8
:104580003700C0B2F6E7612905DB662903DCA1F13B
:104590005700C0B2EEE70020ECE70146092903DC32
:1045A00001F13000C0B270470A2905DB0F2903DC96
:1045B00001F13700C0B2F6E73020F4E7F8B5044661
:1045C0000D461746002F33D02EE02078812806DADA
:1045D0002078012114F07CF90646641C0DE014F8E3
:1045E000010B8DF8010014F8010B8DF80000BDF8E7
:1045F0000000012114F06CF90646300BFFF7CDFFE7
:1046000005F8010BC6F30320FFF7C7FF05F8010B00
:10461000C6F30310FFF7C1FF05F8010B06F00F000A
:10462000FFF7BBFF05F8010B20780028CDD138E05B
:1046300034E014F8010BFFF795FF0007000E8DF82A
:10464000010014F8010BFFF78DFF9DF801100844DD
:10465000C0B28DF8010014F8010BFFF783FF0007CB
:10466000000E8DF8000014F8010BFFF77BFF9DF89A
:1046700000100844C0B28DF80000BDF80000002111
:1046800014F026F90646802E02DA2E706D1C05E025
:104690003006000C40EA16202880AD1C2078002847
:1046A000C7D100202870F8BD2DE9FC470E465FEA0F
:1046B00000097FD002F0AEF8484601F01DF80090E6
:1046C00090F85470D0F85880456BC46C684601F07F
:1046D00071F8B8F1000F04D0314648464246904781
:1046E00061E0122E18D006DC082E43D0102E3CD0EC
:1046F000112E06D112E0132E21D01D2E43D01E2ED6
:104700003DD0202E4FDB17B148460DF03AFEB1B236
:10471000484610F057FF60B3611C27E04DB32846B0
:1047200000F0EAFF05462146019002F0E9FF441936
:10473000204602F093FF01462346012210E0C5B156
:10474000284600F0D9FF05462146019002F0D8FF27
:104750004419204602F082FF014623464FF0FF3203
:1047600048460DF072FC01A81BE0611E484600F0AF
:104770002CFA18E0BCB1611E484600F026FA484603
:104780000DF0FFFD0FE0484600F0B6FF0090012F4E
:1047900012D0012180F854102146484600F015FA45
:1047A000684601F007F848460BF0DCFE00E001E047
:1047B00003F0B8F8BDE8FC87002180F85410EFE75B
:1047C0007CB54568044628460CF0F9FB06462146B0
:1047D00028460AF0EBFF002844D020680F283DD07F
:1047E00004DC0B283FD00E2860D147E0A0F5807094
:1047F000133804D0A0F580702D3857D11DE028461D
:104800000BF0D4FF284600F077FF009010F8561FF9
:1048100081F004010170684600F0CCFF00212846B9
:1048200011F0D4FE284600F067FF0090D0F8840015
:1048300000210BF0A1FF68461DE0E06860B1017A3D
:1048400029B10168284600F0B1F8012100E00221F9
:1048500028460BF0EEFE29E00321F9E70121284666
:1048600011F0B4FE7CBD284600F046FF01903430C4
:1048700000F0A6FE01A800F09DFF17E0B6B1E068C9
:104880004168002912DD01681B290FD006DC0929C7
:104890000CD00A290AD00D2904D107E0212905D01E
:1048A000222903D02846FFF7FFFE7CBD20460BF0EF
:1048B000EFFA7CBDF0B587B00DF1300E9EE8F01038
:1048C0004FF0000E8DE8F05000F002F807B0F0BD98
:1048D0002DE9F04F85B01F46DDE91254DDE90E6A7F
:1048E00090468946834601F095FF0DF1040C4AF489
:1048F00080501F49603400968CE813003B464246C6
:10490000494658460BF00CFA04002AD000F0F4FE99
:104910001022049011990BF01DF9049824221549D6
:104920006030FBF77BFC049A012082F85500681C7C
:1049300000D0012082F88800002D00DC08252DB26F
:10494000158700205087506304A86D1C00F032FFCB
:104950002946204610F000FD18B920460BF0D0FA89
:10496000002402F0DFFF05B02046BDE8F08F000014
:10497000C147000880020020F8B515460C46060025
:1049800013D001F047FF304600F0B6FE009038B17A
:10499000032C05D200EB8400856730460BF0E2FD66
:1049A000684600F007FF02F0BDFFF8BD2DE9F041B9
:1049B00086B00C46060055D001F02CFF304600F0C2
:1049C0009BFE0090406B98B300F096FE0390009819
:1049D000806E02F08DFC804630460BF0C1FC07462D
:1049E000039801F07AFE0546009890F8601001F0F7
:1049F0000301012916D002290DD0416EC06A00685A
:104A00000844241A641E039803F050FE0146002C4B
:104A10000FDA002115E0781B401C00EBD070A4EBEE
:104A20006004F0E7406E791B081A241A641CEAE758
:104A300013E0AC4205DC02462146039803F0D6FDA4
:104A40000146304600F0C1F803A800F0B3FE40462E
:104A500002F04EFC30460BF085FD684600F0AAFEE1
:104A600002F060FF06B0BDE8F08138B50D460400E5
:104A70000ED001F0CFFE204600F03EFE009085668D
:104A800020460BF06FFD684600F094FE02F04AFFEE
:104A900038BD00002DE9FC4788465FEA00094FF069
:104AA000000653D001F0B6FE484600F025FE009007
:104AB000B0F93850446B684600F07CFE0027B8F12E
:104AC000000F45D04CB1204600F016FE0190FBF7D8
:104AD000EAFB461C01A800F06DFE404603F0E6FD2F
:104AE0000446A84200DD2C462146404602F008FE5E
:104AF000451CA91B484610F01EFF10B3484600F0A5
:104B0000FBFD0090406B00F0F7FD174B01902A462B
:104B10001B68414698470198284400F8017C00989A
:104B2000C464B0F938108C4205D190F854100129B2
:104B300001D1641EC46401A800F03CFE684600F088
:104B400039FE48460BF00EFD02F0ECFEBDE8FC8796
:104B5000484600F0D1FD0090343000F031FD00985F
:104B60004787C764EAE70000A003002038B50C4679
:104B700005000FD001F04EFE284600F0BDFD00906C
:104B800018B1046628460BF0EDFC684600F012FEF2
:104B900002F0C8FE38BDF8B515460C46060013D025
:104BA00001F038FE304600F0A7FD009038B1032C2C
:104BB00005D200EB8400C56630460BF0D3FC684696
:104BC00000F0F8FD02F0AEFEF8BD1CB50C4600F09A
:104BD00093FD0090406BF0B100F08EFD019003F06A
:104BE00065FD009991F8542002B10122002C00DAF1
:104BF0000024844200DD0446B1F93800801AA04246
:104C000000DA0446C86CA04200D0CC6400200865DD
:104C100001A800F0CFFD684600F0CCFD1CBD0000EF
:104C200010B506F051FB012000F022F898B10120E8
:104C300000F018F80948406980F48070074948611D
:104C400007484068C0F3804028B10548406820F418
:104C500080200349486006F04DFB10BD0000024073
:104C6000300100200149086070470000143C0140F9
:104C700001460020034A12680A400AB1012000E000
:104C800000207047143C0140002123498279002A0A
:104C90003AD00A46126803689A430B461A600A1D06
:104CA000126803689A430B1D1A60027911440A685E
:104CB00003681A430A60184A0832126803689A4364
:104CC000154B08331A601A1D126803689A43124B79
:104CD0000C331A604279102A0ED11A1F1268036829
:104CE0001A430D4B08331A601A1D126803681A43E1
:104CF000094B0C331A600DE00749427911440A68E8
:104D000003681A430A6005E0027911440A680368DF
:104D10009A430A6070470000003C01401FB5012122
:104D2000084609F0BDF80121880309F0D9F806F01A
:104D300058F80120029000208DF80C008DF80F002B
:104D400002A9114800F0B4F8002108460AF06AF8F8
:104D50000120009000208DF8040008208DF8050047
:104D600001208DF806006846FFF78EFF00208DF8C1
:104D700004000C208DF8050001208DF8060068461F
:104D8000FFF782FF1FBD00000000024010B504467F
:104D90000A2812D00D2C14D001F03CFD09480068FF
:104DA000C0690168204688470748016809B1204664
:104DB0008847BDE8104002F0B5BDBDE8104001F0E5
:104DC00009B810BDE8010020280200202DE9F043B9
:104DD0000446C56887B090468946002002F07CFAF8
:104DE000064625B1287910B146F0020001E026F010
:104DF000020002F071FA2069012558B1D4E90212CB
:104E00008DE8260003956388228804684146484659
:104E1000A0471EE0124F134B214638681B68427CA6
:104E2000E068984730B9E088012801D0002001E00F
:104E30003868806BA288E388A1680095CDE90410EA
:104E4000CDE902320195638822884146484603F045
:104E500063FF07B03046BDE8F04302F03DBA000002
:104E6000E8010020D80100200E4810B5006802F0CB
:104E700017FA0D48006802F01EFA012002F076FAD7
:104E8000002002F081FA002002F08EFA002002F0E9
:104E900023FA0648006802F02BFABDE81040002013
:104EA00002F036BAE4010020E0010020DC0100201D
:104EB000F0B50A4600210023002400BF3DE0012593
:104EC00005FA01F3156805EA03049C4234D105682C
:104ED0004F000326BE40B543056015794E00B5402E
:104EE0000668354305601579012D02D01579022D2C
:104EF00016D185684F000326BE40B54385605579BD
:104F00004E00B540866835438560456801268E4071
:104F1000B5434560456896798E40B6B235434560E5
:104F2000C5684F000326BE40B543C560D5794E0025
:104F3000B540C6683543C560491C1029BFD3F0BDD4
:104F4000F0B5002300244D07ED0E02FA05F3CE1054
:104F500000F1200555F826504E07F70E0F26BE40EB
:104F6000B543CF1000F1200646F82750CE1000F1CF
:104F7000200555F8265045EA0304CE1000F120051F
:104F800045F82640F0BD0246002013690B400BB1E6
:104F9000012000E000207047418370470183704783
:104FA0002DE9F04FDFF828B191B04FF0FF35DBF875
:104FB0000030B3F922100691DE69B3F92490F46948
:104FC000A189814206D8E289824203D3471AD4F8E4
:104FD000008012E0D4E9018100296FD00A88824262
:104FE0006CD84D88854269D3801A82B2486800EB3C
:104FF0008200B0F90070B0F90250781C5ED0307EAB
:10500000A17C10FB01FA217CCDE90701B3F92A60EC
:10501000304604F055FBC0B20E90DBF8000007FBF1
:105020000A81A37C826B0127CDE90412CDE90273CA
:10503000C069089AC17E807ECDE90001DDE90603E2
:10504000494603F069FE681C18D046F0020004F0DF
:1050500037FBDBF80000A37C05FB0A81826BCDE9FE
:105060000273CDE90412C069089AC17E807ECDE941
:105070000001DDE90603494603F04EFEDBF80000BF
:105080005D46C069417E007E814214D9022E12D055
:1050900086F0040004F014FB2868C069027EC37E19
:1050A00012FB0391437E857E089A06984B4412FBBF
:1050B000050203F0C9FF0E9804F002FBDBF80000C4
:1050C000627C418C1144418411B0BDE8F08F000036
:1050D000E801002004480068C069C06909B1027C89
:1050E0000A60407C70470000E80100200220088030
:1050F0007047C06982898A4202D8C2898A4210D226
:10510000806880B102888A420DD843888B420AD3D6
:10511000406800EB8100A0EB8200B0F9000000289D
:1051200001DB012070470020704700002DE9F043AB
:10513000304C034687B020681946B0F92A60C06930
:10514000C06900F05FF9002850D041680088181A43
:1051500001EBC0053046AF7804F0B2FA8146206812
:105160006A680123816BCDE90237CDE90421C16969
:10517000CB7E8A7ECDE900230B7EB0F924102A78FD
:10518000B0F9220003F0C8FD2068C069417E027EAC
:1051900091421FD9C07E11FB00F812FB00F7022ECE
:1051A00018D001F09AF9064601F060F902F083F890
:1051B00021682A78CB69B1F92200DB7E12FB030259
:1051C000B1F9241001EB0803394403F03DFF3046E8
:1051D00002F071F8484604F073FA20686A78C369EF
:1051E000B0F922109B7E12FB0311418407B0BDE889
:1051F000F0830000E801002030B50F4C05460B4657
:1052000020682946C069C06900F0FCF8002812D067
:105210004168008824682A1A0120E46900EBC20072
:10522000085CA47E10FB04F0002B04D011F83210AF
:1052300011FB04F1196030BDE80100200120088055
:10524000704700B5C06900F0DDF8002800D00120EB
:1052500000BD00002DE9F04F87B0054657480068B3
:10526000B0F92A8055480068C069C46907E0208801
:10527000A84203DC6088A84200DB02E0A468002C9E
:10528000F5D100BF002C7DD066682946204601F08C
:1052900031F9B778404604F013FA069047480068A1
:1052A000806B47490122CDE90227CDE9041043482C
:1052B0000068C069C07E41490968C969897EDFF814
:1052C000FCC0CDE90010DCF800C0DCF81CC09CF884
:1052D00018303278DFF8E4C0DCF800C0BCF92410E4
:1052E000DFF8D8C0DCF800C0BCF9220003F014FDE0
:1052F00032480068C069407E30490968C969097E42
:10530000884244DD2D480068C06990F81B902B4806
:105310000068C069407E10FB09FA28480068C0692F
:10532000007E10FB09FBB8F1020F2FD001F0D5F879
:10533000059001F09BF8049001F0BDFFDFF87CC000
:10534000DCF800C0BCF922C096F800E00CEB0E02BD
:10535000DFF868C0DCF800C0BCF924C00CEB0A031D
:10536000DFF858C0DCF800C0BCF924C00CEB0B011E
:10537000DFF848C0DCF800C0BCF9220003F064FE8E
:10538000059800E016E001F096FF00BF00BF069808
:1053900004F096F909480068B0F922107078074ABD
:1053A0001268D269927E10FB021000B203490968AC
:1053B000488400BF07B0BDE8F08F0000E80100207E
:1053C00038E9002002460E480068C069C16907E05C
:1053D0000888904203DC4888904200DB02E089683C
:1053E0000029F5D100BF41B148680078044B1B6823
:1053F000DB699B7E10FB03F070470020FCE7000098
:10540000E801002006E002888A4202D842888A42E7
:1054100002D280680028F6D1704700002DE9F041E3
:105420000025154E154C18E02069C5EB051700EB5B
:10543000C7007022001D3168FAF7F0FE20690021D4
:1054400040F8371000EBC70000F10C018161011D2D
:105450000A1DC0E90F126D1C4164A0688542E3DBA0
:105460000FF06CFE2169C0EB001001EBC000001DC5
:105470003060BDE8F0810000E8010020B8030020A2
:1054800070B510490E480860084603F099FA0D4CB3
:10549000143CA068C0EB0010C500284600F09EF840
:1054A000094B20612A461B68002198474FF0FF30C6
:1054B000206002F08FFABDE870400FF03FBE0000A0
:1054C000E5610108CC0300209C030020F8B50C0026
:1054D00005460ED001F09EF9204600F01BF80600AC
:1054E00010D000F009F92246009025B12946074B5B
:1054F00003E00020F8BD064B00211B689847684672
:1055000000F058F902F00EFA3046F8BDA003002072
:105510009C03002010B5040009D001F07BF920465F
:105520000CF0CEFA044602F0FDF9204610BD002032
:1055300010BD000038B5054601F06CF92846FFF7AC
:10554000E9FF04000AD000F0D7F8064B00902A4685
:105550001B6800219847684600F02CF902F0E2F938
:10556000204638BD9C030020024A106021F0030051
:1055700050607047F8ED002010B5040011D001F024
:1055800049F90848042101EBC401406B41584868BF
:105590000BF058FF204611F00BFABDE8104002F066
:1055A000C1B910BD38ED0020002805D0034AD16BE9
:1055B000016001B14860D0637047000038ED002001
:1055C00010B5044601F026F92068FFF7D5FF00204A
:1055D0002060BDE8104002F0A5B900002DE9F041BF
:1055E00004460FF0ADFF2848E41C24F00305016CCD
:1055F0002D1DA94200D90D46C46B13E054F8042CAC
:10560000AA420ED184B1216809B162684A6061681A
:1056100009B122680A60C26BA24231D12168C1631C
:105620002EE02468002CE9D18046816BC0680F18F9
:1056300057F8040C3E1A306838B1002011F014FA03
:1056400057F8040C3E1A3068D0B97068A84217DBCE
:105650003044441B3046241D11F0BEF9D8F80C101C
:10566000491BC8F80C10D8F814102944C8F81410B5
:105670007068401B02D031460BF0E4FE44F8045C35
:105680002046BDE8F081000038ED002010B5002470
:105690000FF056FF0C490F2001EBC002526C1AB1FB
:1056A00001EBC000406C08E0401EF5D508E0416801
:1056B000A14200D90C46806810B180680028F6D15C
:1056C000A4F10C0010BD000038ED0020002138B11D
:1056D0000449042202EBC000496B085841680C39A8
:1056E0000846704738ED002002488169491C8161F5
:1056F0007047000038ED00200549CA69521CCA6194
:10570000496B01EBC0010A78521C0A7000F06AB8BC
:1057100038ED00207CB506460C460846FFF7FAFE39
:10572000050021D006B33046FFF7D0FFA04200DAD3
:10573000044601F06FF82846FFF7DEFF0090304680
:10574000FFF7DAFF094B019001461B6822460098DB
:105750009847684600F02EF801A800F02BF8304674
:10576000FFF70AFF02F0DEF828467CBDA003002008
:1057700010B501F04FF8FFF789FF64220849B0F532
:10578000800F04D990FBF2F4086A444303E0096AED
:105790004143B1FBF2F402F0C5F8204610BD000011
:1057A00038ED002002488169491E81617047000080
:1057B00038ED00200A4902684B6B52F8082C03EBC5
:1057C000C2021378022B03D3CB690BB15B1ECB61F2
:1057D0001178491E117000210160084670470000D1
:1057E00038ED00200349042202EBC000496B085841
:1057F0000830704738ED00202DE9FC414FF00006DD
:105800000B465FEA000834462BD032B111461846E9
:10581000FFF75CFE060000D101244046FFF76CFF55
:105820000090078845686846FFF7C4FFCCB9B90007
:105830002846091DFFF76EFF050015D0FFF75CFF36
:10584000019040F8276001A8FFF7B4FF4046FFF73A
:1058500053FF009045600188491C01806846FFF7AE
:10586000A9FF2046BDE8FC813046FFF785FE0124F4
:10587000F7E70820FFF75EBE7CB5050023D0FFF7F1
:105880003BFF00904068C0B1FFF736FF0024019055
:1058900005E0019800EB8400FFF792FE641C00987D
:1058A0000088A042F5DC01A8FFF784FF0098001DE6
:1058B000FFF786FE0099002008806846FFF77AFF10
:1058C0002846FFF759FE7CBD38B5002430B1FFF7FC
:1058D00013FF009004886846FFF76CFF204638BD30
:1058E00038B50D46002448B1FFF706FF2946009061
:1058F00000F016F804466846FFF75CFF204638BD06
:1059000038B50D46002448B1FFF7F6FE2946009051
:1059100000F018F804466846FFF74CFF204638BDF3
:1059200038B50D4601880024A94209D9406838B12C
:10593000FFF7E2FE009050F825406846FFF73AFF77
:10594000204638BD10B50024FFF7EAFF10B1FFF77D
:10595000D3FE0446204610BD10B5C2B2CBB2D21A57
:1059600000D5524293B25B43C0F30722C1F3072430
:10597000121B00D55242000C92B2A0EB114002FB68
:10598000023200B2002801DA404200B280B200FBCD
:10599000002010BD10B50021084600F0E1FE43F6DE
:1059A000FF725042BDE810401346014600F012B8A5
:1059B00010B500F02FFF064C206802E00FF0C8FC85
:1059C000206061688842F9D1BDE8104001F0AABFAB
:1059D000440200202DE9FC411C4615460E460746B0
:1059E00000F018FF042003F06BFE80461248406967
:1059F000C16C006D0F4406440D440444ADF80070C2
:105A0000ADF80450ADF80260ADF8064068460BF002
:105A10008BF907E023462A463146384603F014FB4B
:105A20000BF044F90028F5D1404603F049FE01F09F
:105A300079FFBDE8FC810000D4010020B0F90630F8
:105A4000B0F90420B0F90210B0F90000FFF7C2BFAE
:105A50002DE9FC4106460D4614463D4800780028D5
:105A600074DD01203B4908710D203B4908703B481B
:105A7000006866F30700394908600846006865F366
:105A80000F200860B4F900103148801D415C334894
:105A9000006861F31F403149086001AA00213048C5
:105AA00006F0DAFA002706E06A460021642006F0D4
:105AB00099FC781CC7B22B480068C0F3005008B9A5
:105AC0000F2FF1DB27480068C0F3005028B3C5B999
:105AD000B4F90000401E00280CDD2088401E00B2F2
